{
  "contractName": "Game",
  "abi": [
    {
      "inputs": [],
      "payable": true,
      "stateMutability": "payable",
      "type": "constructor"
    },
    {
      "anonymous": false,
      "inputs": [
        {
          "indexed": false,
          "internalType": "address",
          "name": "Player",
          "type": "address"
        },
        {
          "indexed": false,
          "internalType": "string",
          "name": "Choice",
          "type": "string"
        }
      ],
      "name": "ChoiceReveal",
      "type": "event"
    },
    {
      "anonymous": false,
      "inputs": [
        {
          "indexed": false,
          "internalType": "address",
          "name": "Player",
          "type": "address"
        },
        {
          "indexed": false,
          "internalType": "uint256",
          "name": "Value",
          "type": "uint256"
        }
      ],
      "name": "NewBet",
      "type": "event"
    },
    {
      "anonymous": false,
      "inputs": [
        {
          "indexed": false,
          "internalType": "uint8",
          "name": "CardSuit",
          "type": "uint8"
        },
        {
          "indexed": false,
          "internalType": "uint8",
          "name": "Card",
          "type": "uint8"
        }
      ],
      "name": "NewCard",
      "type": "event"
    },
    {
      "anonymous": false,
      "inputs": [
        {
          "indexed": false,
          "internalType": "address",
          "name": "Player",
          "type": "address"
        }
      ],
      "name": "NewPlayer",
      "type": "event"
    },
    {
      "constant": true,
      "inputs": [],
      "name": "cc",
      "outputs": [
        {
          "internalType": "uint8",
          "name": "",
          "type": "uint8"
        }
      ],
      "payable": false,
      "stateMutability": "view",
      "type": "function"
    },
    {
      "constant": true,
      "inputs": [],
      "name": "cs",
      "outputs": [
        {
          "internalType": "uint8",
          "name": "",
          "type": "uint8"
        }
      ],
      "payable": false,
      "stateMutability": "view",
      "type": "function"
    },
    {
      "constant": true,
      "inputs": [],
      "name": "owner",
      "outputs": [
        {
          "internalType": "address payable",
          "name": "",
          "type": "address"
        }
      ],
      "payable": false,
      "stateMutability": "view",
      "type": "function"
    },
    {
      "constant": false,
      "inputs": [
        {
          "internalType": "bytes32",
          "name": "_choice",
          "type": "bytes32"
        }
      ],
      "name": "newBet",
      "outputs": [],
      "payable": true,
      "stateMutability": "payable",
      "type": "function"
    },
    {
      "constant": false,
      "inputs": [],
      "name": "newPlayer",
      "outputs": [],
      "payable": false,
      "stateMutability": "nonpayable",
      "type": "function"
    },
    {
      "constant": false,
      "inputs": [
        {
          "internalType": "uint256",
          "name": "_rand",
          "type": "uint256"
        },
        {
          "internalType": "uint256",
          "name": "_choice",
          "type": "uint256"
        }
      ],
      "name": "Reveal",
      "outputs": [],
      "payable": false,
      "stateMutability": "nonpayable",
      "type": "function"
    },
    {
      "constant": false,
      "inputs": [],
      "name": "newCard",
      "outputs": [],
      "payable": false,
      "stateMutability": "nonpayable",
      "type": "function"
    },
    {
      "constant": false,
      "inputs": [],
      "name": "fallback",
      "outputs": [],
      "payable": true,
      "stateMutability": "payable",
      "type": "function"
    }
  ],
  "bytecode": "0x6080604052336000806101000a81548173ffffffffffffffffffffffffffffffffffffffff021916908373ffffffffffffffffffffffffffffffffffffffff160217905550610054600461013960201b60201c565b600060146101000a81548160ff021916908360ff16021790555061007e600d61013960201b60201c565b600060156101000a81548160ff021916908360ff160217905550426007819055507f77d4614646e68dc7aea83cfc008cf0af6d463e97722ce9b88cd1b4f84ea510d4600060149054906101000a900460ff16600060159054906101000a900460ff16604051808360ff1660ff1681526020018260ff1660ff1681526020019250505060405180910390a16001600060166101000a81548160ff021916908360ff1602179055506001600881905550600060098190555061017d565b600081424460405160200180838152602001828152602001925050506040516020818303038152906040528051906020012060001c8161017557fe5b069050919050565b6119178061018c6000396000f3fe60806040526004361061007b5760003560e01c8063805cbb021161004e578063805cbb02146100e95780638da5cb5b14610117578063a2cdd4711461016e578063c172d6f61461019f5761007b565b80634816aa4214610080578063540a5e4e14610097578063552079dc146100c857806375479c34146100d2575b600080fd5b34801561008c57600080fd5b506100956101e4565b005b3480156100a357600080fd5b506100ac610a30565b604051808260ff1660ff16815260200191505060405180910390f35b6100d0610a43565b005b3480156100de57600080fd5b506100e7610abb565b005b610115600480360360208110156100ff57600080fd5b8101908080359060200190929190505050610d11565b005b34801561012357600080fd5b5061012c6111de565b604051808273ffffffffffffffffffffffffffffffffffffffff1673ffffffffffffffffffffffffffffffffffffffff16815260200191505060405180910390f35b34801561017a57600080fd5b50610183611203565b604051808260ff1660ff16815260200191505060405180910390f35b3480156101ab57600080fd5b506101e2600480360360408110156101c257600080fd5b810190808035906020019092919080359060200190929190505050611216565b005b60026008540260075442031015610263576040517f08c379a00000000000000000000000000000000000000000000000000000000081526004018080602001828103825260188152602001807f42657474696e672070726f63657373206e6f74206f766572000000000000000081525060200191505060405180910390fd5b600180600060149054906101000a900460ff1660ff166004811061028357fe5b01600060159054906101000a900460ff1660ff16600d81106102a157fe5b602091828204019190066101000a81548160ff021916908360ff16021790555060006102cd600d611854565b905060006102db6004611854565b90505b6001808260ff16600481106102ef57fe5b018360ff16600d81106102fe57fe5b602091828204019190069054906101000a900460ff1660ff16141561033a57610327600d611854565b91506103336004611854565b90506102de565b6000809050600060159054906101000a900460ff1660ff168360ff1611156103655760029050610391565b600060159054906101000a900460ff1660ff168360ff16101561038b5760019050610390565b600390505b5b82600060156101000a81548160ff021916908360ff16021790555081600060146101000a81548160ff021916908360ff1602179055506004600060169054906101000a900460ff1660ff161415610478576001600060166101000a81548160ff021916908360ff16021790555060008090505b60048110156104725760008090505b600d8110156104645760006001836004811061042b57fe5b0182600d811061043757fe5b602091828204019190066101000a81548160ff021916908360ff1602179055508080600101915050610413565b508080600101915050610404565b506104a7565b6001600060168282829054906101000a900460ff160192506101000a81548160ff021916908360ff1602179055505b60008090505b6006805490508110156109b257600060018111156104c757fe5b60056000600684815481106104d857fe5b9060005260206000200160009054906101000a900473ffffffffffffffffffffffffffffffffffffffff1673ffffffffffffffffffffffffffffffffffffffff1673ffffffffffffffffffffffffffffffffffffffff16815260200190815260200160002060030160009054906101000a900460ff16600181111561055957fe5b1415610564576109a5565b60038214156106ee576000809054906101000a900473ffffffffffffffffffffffffffffffffffffffff1673ffffffffffffffffffffffffffffffffffffffff166108fc60056000600685815481106105b957fe5b9060005260206000200160009054906101000a900473ffffffffffffffffffffffffffffffffffffffff1673ffffffffffffffffffffffffffffffffffffffff1673ffffffffffffffffffffffffffffffffffffffff168152602001908152602001600020600001549081150290604051600060405180830381858888f1935050505015801561064d573d6000803e3d6000fd5b506000600560006006848154811061066157fe5b9060005260206000200160009054906101000a900473ffffffffffffffffffffffffffffffffffffffff1673ffffffffffffffffffffffffffffffffffffffff1673ffffffffffffffffffffffffffffffffffffffff16815260200190815260200160002060030160006101000a81548160ff021916908360018111156106e457fe5b02179055506109a5565b81600560006006848154811061070057fe5b9060005260206000200160009054906101000a900473ffffffffffffffffffffffffffffffffffffffff1673ffffffffffffffffffffffffffffffffffffffff1673ffffffffffffffffffffffffffffffffffffffff168152602001908152602001600020600201541461080e576000600560006006848154811061078157fe5b9060005260206000200160009054906101000a900473ffffffffffffffffffffffffffffffffffffffff1673ffffffffffffffffffffffffffffffffffffffff1673ffffffffffffffffffffffffffffffffffffffff16815260200190815260200160002060030160006101000a81548160ff0219169083600181111561080457fe5b02179055506109a4565b6000600560006006848154811061082157fe5b9060005260206000200160009054906101000a900473ffffffffffffffffffffffffffffffffffffffff1673ffffffffffffffffffffffffffffffffffffffff1673ffffffffffffffffffffffffffffffffffffffff16815260200190815260200160002060030160006101000a81548160ff021916908360018111156108a457fe5b0217905550600681815481106108b657fe5b9060005260206000200160009054906101000a900473ffffffffffffffffffffffffffffffffffffffff1673ffffffffffffffffffffffffffffffffffffffff166108fc600560006006858154811061090b57fe5b9060005260206000200160009054906101000a900473ffffffffffffffffffffffffffffffffffffffff1673ffffffffffffffffffffffffffffffffffffffff1673ffffffffffffffffffffffffffffffffffffffff168152602001908152602001600020600001546002029081150290604051600060405180830381858888f193505050501580156109a2573d6000803e3d6000fd5b505b5b80806001019150506104ad565b5060006009819055507f77d4614646e68dc7aea83cfc008cf0af6d463e97722ce9b88cd1b4f84ea510d4600060149054906101000a900460ff16600060159054906101000a900460ff16604051808360ff1660ff1681526020018260ff1660ff1681526020019250505060405180910390a142600781905550505050565b600060149054906101000a900460ff1681565b60003411610ab9576040517f08c379a00000000000000000000000000000000000000000000000000000000081526004018080602001828103825260118152602001807f56616c75652063616e6e6f74206265203000000000000000000000000000000081525060200191505060405180910390fd5b565b60001515600560003373ffffffffffffffffffffffffffffffffffffffff1673ffffffffffffffffffffffffffffffffffffffff16815260200190815260200160002060030160019054906101000a900460ff16151514610b84576040517f08c379a00000000000000000000000000000000000000000000000000000000081526004018080602001828103825260158152602001807f506c6179657220616c726561647920657869737473000000000000000000000081525060200191505060405180910390fd5b6001600560003373ffffffffffffffffffffffffffffffffffffffff1673ffffffffffffffffffffffffffffffffffffffff16815260200190815260200160002060030160016101000a81548160ff0219169083151502179055506000600560003373ffffffffffffffffffffffffffffffffffffffff1673ffffffffffffffffffffffffffffffffffffffff16815260200190815260200160002060030160006101000a81548160ff02191690836001811115610c3e57fe5b0217905550600160063390806001815401808255809150509060018203906000526020600020016000909192909190916101000a81548173ffffffffffffffffffffffffffffffffffffffff021916908373ffffffffffffffffffffffffffffffffffffffff16021790555050507f52e92d4898337244a39bd42674ac561eadfd3959e947deec1c0ab82dd58b5a7533604051808273ffffffffffffffffffffffffffffffffffffffff1673ffffffffffffffffffffffffffffffffffffffff16815260200191505060405180910390a1565b60011515600560003373ffffffffffffffffffffffffffffffffffffffff1673ffffffffffffffffffffffffffffffffffffffff16815260200190815260200160002060030160019054906101000a900460ff16151514610dda576040517f08c379a00000000000000000000000000000000000000000000000000000000081526004018080602001828103825260158152602001807f506c61796572206e6f742072656769737465726564000000000000000000000081525060200191505060405180910390fd5b60006001811115610de757fe5b600560003373ffffffffffffffffffffffffffffffffffffffff1673ffffffffffffffffffffffffffffffffffffffff16815260200190815260200160002060030160009054906101000a900460ff166001811115610e4257fe5b14610e98576040517f08c379a00000000000000000000000000000000000000000000000000000000081526004018080602001828103825260228152602001806118996022913960400191505060405180910390fd5b60016008540260075442031115610f17576040517f08c379a00000000000000000000000000000000000000000000000000000000081526004018080602001828103825260118152602001807f42657474696e672074696d65206f76657200000000000000000000000000000081525060200191505060405180910390fd5b60003411610f8d576040517f08c379a00000000000000000000000000000000000000000000000000000000081526004018080602001828103825260188152602001807f4265742076616c75652063616e6e6f74206265207a65726f000000000000000081525060200191505060405180910390fd5b600034600954016002029050803073ffffffffffffffffffffffffffffffffffffffff163111611025576040517f08c379a000000000000000000000000000000000000000000000000000000000815260040180806020018281038252600d8152602001807f42657420746f6f206c617267650000000000000000000000000000000000000081525060200191505060405180910390fd5b346009600082825401925050819055506001600560003373ffffffffffffffffffffffffffffffffffffffff1673ffffffffffffffffffffffffffffffffffffffff16815260200190815260200160002060030160006101000a81548160ff0219169083600181111561109457fe5b021790555034600560003373ffffffffffffffffffffffffffffffffffffffff1673ffffffffffffffffffffffffffffffffffffffff1681526020019081526020016000206000018190555081600560003373ffffffffffffffffffffffffffffffffffffffff1673ffffffffffffffffffffffffffffffffffffffff168152602001908152602001600020600101819055506000600560003373ffffffffffffffffffffffffffffffffffffffff1673ffffffffffffffffffffffffffffffffffffffff168152602001908152602001600020600201819055507f15f528ef064d916438cdf46f2b272384a7e9459ab69445d805472aa3dfe1535e3334604051808373ffffffffffffffffffffffffffffffffffffffff1673ffffffffffffffffffffffffffffffffffffffff1681526020018281526020019250505060405180910390a15050565b6000809054906101000a900473ffffffffffffffffffffffffffffffffffffffff1681565b600060159054906101000a900460ff1681565b60011515600560003373ffffffffffffffffffffffffffffffffffffffff1673ffffffffffffffffffffffffffffffffffffffff16815260200190815260200160002060030160019054906101000a900460ff161515146112df576040517f08c379a00000000000000000000000000000000000000000000000000000000081526004018080602001828103825260158152602001807f506c61796572206e6f742072656769737465726564000000000000000000000081525060200191505060405180910390fd5b6001808111156112eb57fe5b600560003373ffffffffffffffffffffffffffffffffffffffff1673ffffffffffffffffffffffffffffffffffffffff16815260200190815260200160002060030160009054906101000a900460ff16600181111561134657fe5b146113b9576040517f08c379a000000000000000000000000000000000000000000000000000000000815260040180806020018281038252601f8152602001807f506c6179657220646964206e6f742062657420696e2074686973207475726e0081525060200191505060405180910390fd5b6001600854026007544203101561141b576040517f08c379a00000000000000000000000000000000000000000000000000000000081526004018080602001828103825260288152602001806118bb6028913960400191505060405180910390fd5b6002600854026007544203111561149a576040517f08c379a00000000000000000000000000000000000000000000000000000000081526004018080602001828103825260108152602001807f52657665616c2074696d65206f7665720000000000000000000000000000000081525060200191505060405180910390fd5b6000811180156114aa5750600381105b61151c576040517f08c379a000000000000000000000000000000000000000000000000000000000815260040180806020018281038252600e8152602001807f496e76616c69642063686f69636500000000000000000000000000000000000081525060200191505060405180910390fd5b6000600560003373ffffffffffffffffffffffffffffffffffffffff1673ffffffffffffffffffffffffffffffffffffffff16815260200190815260200160002060020154146115d4576040517f08c379a00000000000000000000000000000000000000000000000000000000081526004018080602001828103825260178152602001807f43686f69636520616c72656164792072657665616c656400000000000000000081525060200191505060405180910390fd5b600081600a84020190506000816040516020018082815260200191505060405160208183030381529060405280519060200120905080600560003373ffffffffffffffffffffffffffffffffffffffff1673ffffffffffffffffffffffffffffffffffffffff16815260200190815260200160002060010154146116c0576040517f08c379a000000000000000000000000000000000000000000000000000000000815260040180806020018281038252600c8152602001807f496e76616c69642068617368000000000000000000000000000000000000000081525060200191505060405180910390fd5b82600560003373ffffffffffffffffffffffffffffffffffffffff1673ffffffffffffffffffffffffffffffffffffffff1681526020019081526020016000206002018190555060018314156117b1577f56423e5f1ba217f09b3c957edd82948c699203ef408a57a6baa4bc470b82988533604051808273ffffffffffffffffffffffffffffffffffffffff1673ffffffffffffffffffffffffffffffffffffffff16815260200180602001828103825260038152602001807f4c4f5700000000000000000000000000000000000000000000000000000000008152506020019250505060405180910390a161184e565b7f56423e5f1ba217f09b3c957edd82948c699203ef408a57a6baa4bc470b82988533604051808273ffffffffffffffffffffffffffffffffffffffff1673ffffffffffffffffffffffffffffffffffffffff16815260200180602001828103825260048152602001807f48494748000000000000000000000000000000000000000000000000000000008152506020019250505060405180910390a15b50505050565b600081424460405160200180838152602001828152602001925050506040516020818303038152906040528051906020012060001c8161189057fe5b06905091905056fe506c617965722063616e20626574206f6e6c79206f6e636520696e2061207475726e43616e6e6f742072657665616c2063686f69636520647572696e672062657474696e672074696d65a265627a7a723158203af02dca9fd067b4d933c6eae8aeb0f60c604fb369ac838ee6856d83eabf575764736f6c634300050c0032",
  "source": "pragma solidity ^0.5.0;\n\ncontract Game{\n\n    enum active { NO, YES }\n\n    struct Player {\n        uint val;\n        bytes32 choice;\n        uint256 ch;\n        active a;\n        bool is_taken;\n    }\n\n    address payable public owner;\n    uint8 public cs;\n    uint8 public cc;\n    uint8 private count;\n    uint8[13][4] private burnDeck;\n    mapping (address => Player) private players;\n    address payable[] private playerAccts;\n    uint gameStart;\n    uint any_time;\n    uint256 total;\n\n    event NewCard(uint8 CardSuit, uint8 Card);\n    event NewPlayer(address Player);\n    event NewBet(address Player, uint Value);\n    event ChoiceReveal(address Player, string Choice);\n\n    constructor() public payable {\n        // require(_time>0,\"Betting time cannot be 0\");\n        owner = msg.sender;\n        cs = random(4);\n        cc = random(13);\n        gameStart = now;\n        emit NewCard(cs,cc);\n        count = 1;\n        any_time = 1;\n        total = 0;\n    }\n\n    function newBet(bytes32 _choice) public payable {\n        require(players[msg.sender].is_taken==true,\"Player not registered\");\n        require(players[msg.sender].a==active.NO,\"Player can bet only once in a turn\");\n        require(now - gameStart <= any_time * 1 seconds,\"Betting time over\");\n        require(msg.value>0,\"Bet value cannot be zero\");\n        uint256 temp = 2 * ( total + msg.value );\n        require(address(this).balance>temp,\"Bet too large\");\n        total += msg.value;\n        players[msg.sender].a = active.YES;\n        players[msg.sender].val = msg.value;\n        players[msg.sender].choice = _choice;\n        players[msg.sender].ch = 0;\n        emit NewBet(msg.sender,msg.value);\n    }\n\n    function newPlayer() public {\n        require(players[msg.sender].is_taken==false,\"Player already exists\");\n        players[msg.sender].is_taken = true;\n        players[msg.sender].a = active.NO;\n        playerAccts.push(msg.sender) - 1;\n        emit NewPlayer(msg.sender);\n    }\n\n    function Reveal(uint256 _rand, uint256 _choice) public {\n        require(players[msg.sender].is_taken==true,\"Player not registered\");\n        require(players[msg.sender].a==active.YES,\"Player did not bet in this turn\");\n        require(now - gameStart >= any_time * 1 seconds,\"Cannot reveal choice during betting time\");\n        require(now - gameStart <= any_time * 2 seconds,\"Reveal time over\");\n        require(_choice>0 && _choice<3,\"Invalid choice\");\n        require(players[msg.sender].ch==0,\"Choice already revealed\");\n        uint256 inter = _rand * 10 + _choice;\n        bytes32 temp = keccak256(abi.encodePacked(inter));\n        require(players[msg.sender].choice==temp,\"Invalid hash\");\n        players[msg.sender].ch = _choice;\n        if(_choice==1)\n            emit ChoiceReveal(msg.sender,\"LOW\");\n        else\n            emit ChoiceReveal(msg.sender,\"HIGH\");\n    }\n\n    function newCard() public {\n        require(now - gameStart >= any_time * 2 seconds,\"Betting process not over\");\n        burnDeck[cs][cc] = 1;\n        uint8 c = random(13);\n        uint8 s = random(4);\n        while(burnDeck[s][c]==1) {\n            c = random(13);\n            s = random(4);\n        }\n        uint256 winner = 0;\n        if(c>cc) {\n            winner = 2;\n        } else if(c<cc) {\n            winner = 1;\n        } else {\n            winner = 3;\n        }\n        cc = c;\n        cs = s;\n        if(count==4) {\n            count = 1;\n            for(uint i = 0; i<4; i++) {\n                for(uint j = 0; j<13; j++) {\n                    burnDeck[i][j] = 0;\n                }\n            }\n        }\n        else {\n            count += 1;\n        }\n        for(uint i = 0; i<playerAccts.length; i++) {\n            if(players[playerAccts[i]].a==active.NO) {\n                continue;\n            }\n            if(winner==3) {\n                owner.transfer(players[playerAccts[i]].val);\n                players[playerAccts[i]].a = active.NO;\n                continue;\n            }\n            if(players[playerAccts[i]].ch!=winner) {\n                players[playerAccts[i]].a = active.NO;\n            } else {\n                players[playerAccts[i]].a = active.NO;\n                playerAccts[i].transfer(2*players[playerAccts[i]].val);\n            }\n        }\n        total = 0;\n        emit NewCard(cs,cc);\n        gameStart = now;\n    }\n\n    function fallback() external payable {\n        require(msg.value>0,\"Value cannot be 0\");\n    }\n\n    function random(uint256 _num) private view returns (uint8) {\n        return uint8(uint256(keccak256(abi.encodePacked(block.timestamp, block.difficulty)))%_num);\n    }\n\n}\n",
  "sourcePath": "/Users/illuminati/highlow/contracts/Game.sol",
  "compiler": {
    "name": "solc",
    "version": "0.5.12+commit.7709ece9.Emscripten.clang"
  },
  "schemaVersion": "3.0.19",
  "updatedAt": "2019-11-29T14:54:05.757Z",
  "devdoc": {
    "methods": {}
  },
  "userdoc": {
    "methods": {}
  }
}