{
  "contractName": "HighLow",
  "abi": [
    {
      "inputs": [],
      "payable": false,
      "stateMutability": "nonpayable",
      "type": "constructor"
    },
    {
      "constant": true,
      "inputs": [],
      "name": "numOfPlayers",
      "outputs": [
        {
          "internalType": "uint256",
          "name": "",
          "type": "uint256"
        }
      ],
      "payable": false,
      "stateMutability": "view",
      "type": "function"
    },
    {
      "constant": false,
      "inputs": [],
      "name": "incr",
      "outputs": [
        {
          "internalType": "string",
          "name": "",
          "type": "string"
        }
      ],
      "payable": false,
      "stateMutability": "nonpayable",
      "type": "function"
    },
    {
      "constant": true,
      "inputs": [],
      "name": "showin",
      "outputs": [
        {
          "internalType": "uint256",
          "name": "",
          "type": "uint256"
        }
      ],
      "payable": false,
      "stateMutability": "view",
      "type": "function"
    },
    {
      "constant": false,
      "inputs": [],
      "name": "startgame",
      "outputs": [],
      "payable": false,
      "stateMutability": "nonpayable",
      "type": "function"
    },
    {
      "constant": false,
      "inputs": [
        {
          "internalType": "uint256",
          "name": "_val",
          "type": "uint256"
        }
      ],
      "name": "setNumOfPlayers",
      "outputs": [
        {
          "internalType": "string",
          "name": "",
          "type": "string"
        }
      ],
      "payable": false,
      "stateMutability": "nonpayable",
      "type": "function"
    },
    {
      "constant": true,
      "inputs": [],
      "name": "showCurrentPlayer",
      "outputs": [
        {
          "internalType": "string",
          "name": "",
          "type": "string"
        }
      ],
      "payable": false,
      "stateMutability": "view",
      "type": "function"
    },
    {
      "constant": false,
      "inputs": [
        {
          "internalType": "string",
          "name": "_player_name",
          "type": "string"
        }
      ],
      "name": "setPlayer",
      "outputs": [],
      "payable": false,
      "stateMutability": "nonpayable",
      "type": "function"
    },
    {
      "constant": true,
      "inputs": [],
      "name": "sendPlaynum",
      "outputs": [
        {
          "internalType": "uint256",
          "name": "",
          "type": "uint256"
        }
      ],
      "payable": false,
      "stateMutability": "view",
      "type": "function"
    },
    {
      "constant": false,
      "inputs": [
        {
          "internalType": "uint256",
          "name": "_betval",
          "type": "uint256"
        },
        {
          "internalType": "string",
          "name": "_val",
          "type": "string"
        }
      ],
      "name": "setBet",
      "outputs": [],
      "payable": false,
      "stateMutability": "nonpayable",
      "type": "function"
    },
    {
      "constant": false,
      "inputs": [],
      "name": "calculateRewards",
      "outputs": [
        {
          "internalType": "string",
          "name": "",
          "type": "string"
        }
      ],
      "payable": false,
      "stateMutability": "nonpayable",
      "type": "function"
    },
    {
      "constant": true,
      "inputs": [],
      "name": "showPreviousCard",
      "outputs": [
        {
          "internalType": "string",
          "name": "",
          "type": "string"
        }
      ],
      "payable": false,
      "stateMutability": "view",
      "type": "function"
    },
    {
      "constant": true,
      "inputs": [],
      "name": "stateOfGame",
      "outputs": [
        {
          "internalType": "string",
          "name": "",
          "type": "string"
        }
      ],
      "payable": false,
      "stateMutability": "view",
      "type": "function"
    },
    {
      "constant": true,
      "inputs": [],
      "name": "states",
      "outputs": [
        {
          "internalType": "uint256",
          "name": "",
          "type": "uint256"
        }
      ],
      "payable": false,
      "stateMutability": "view",
      "type": "function"
    },
    {
      "constant": true,
      "inputs": [],
      "name": "reslname",
      "outputs": [
        {
          "internalType": "string",
          "name": "",
          "type": "string"
        }
      ],
      "payable": false,
      "stateMutability": "view",
      "type": "function"
    },
    {
      "constant": true,
      "inputs": [],
      "name": "reslval",
      "outputs": [
        {
          "internalType": "uint256",
          "name": "",
          "type": "uint256"
        }
      ],
      "payable": false,
      "stateMutability": "view",
      "type": "function"
    },
    {
      "constant": true,
      "inputs": [],
      "name": "resind",
      "outputs": [
        {
          "internalType": "uint256",
          "name": "",
          "type": "uint256"
        }
      ],
      "payable": false,
      "stateMutability": "view",
      "type": "function"
    },
    {
      "constant": true,
      "inputs": [
        {
          "internalType": "string",
          "name": "_playername",
          "type": "string"
        }
      ],
      "name": "showPlayerValue",
      "outputs": [
        {
          "internalType": "uint256",
          "name": "",
          "type": "uint256"
        }
      ],
      "payable": false,
      "stateMutability": "view",
      "type": "function"
    },
    {
      "constant": false,
      "inputs": [],
      "name": "exitGame",
      "outputs": [],
      "payable": false,
      "stateMutability": "nonpayable",
      "type": "function"
    }
  ],
  "bytecode": "0x608060405260c86034553480156200001657600080fd5b5060008090505b6034811015620000495780600082603481106200003657fe5b018190555080806001019150506200001d565b506200005a620000a760201b60201c565b600060358190555060006036819055506004603960006101000a81548160ff021916908360048111156200008a57fe5b02179055506000603881620000a0919062000151565b5062000252565b60008090505b60348110156200014e5760008160340342604051602001808281526020019150506040516020818303038152906040528051906020012060001c81620000ef57fe5b068201905060008082603481106200010357fe5b01549050600083603481106200011557fe5b0154600083603481106200012557fe5b018190555080600084603481106200013957fe5b018190555050508080600101915050620000ad565b50565b815481835581811115620001815760040281600402836000526020600020918201910162000180919062000186565b5b505050565b620001db91905b80821115620001d75760008082016000620001a99190620001de565b60018201600090556002820160006101000a81549060ff02191690556003820160009055506004016200018d565b5090565b90565b50805460018160011615610100020316600290046000825580601f1062000206575062000227565b601f0160209004906000526020600020908101906200022691906200022a565b5b50565b6200024f91905b808211156200024b57600081600090555060010162000231565b5090565b90565b61246a80620002626000396000f3fe608060405234801561001057600080fd5b50600436106101165760003560e01c806362728a07116100a25780637f887cec116100715780637f887cec146105ee57806382482f7c146106bd5780638b579863146106db578063aaaea0471461075e578063d32eb5a41461076857610116565b806362728a071461052557806364dbe271146105a85780637379f99d146105b2578063787958f2146105d057610116565b80631460a1d1116100e95780631460a1d114610281578063201c38451461033c5780633e50de301461035a5780634cb6f71a146103dd5780634fe8ee87146104a257610116565b8063087b7ff11461011b5780630db7fa1014610139578063119fbbd414610157578063125c88b5146101da575b600080fd5b6101236107eb565b6040518082815260200191505060405180910390f35b61014161086b565b6040518082815260200191505060405180910390f35b61015f610878565b6040518080602001828103825283818151815260200191508051906020019080838360005b8381101561019f578082015181840152602081019050610184565b50505050905090810190601f1680156101cc5780820380516001836020036101000a031916815260200191505b509250505060405180910390f35b610206600480360360208110156101f057600080fd5b81019080803590602001909291905050506108c1565b6040518080602001828103825283818151815260200191508051906020019080838360005b8381101561024657808201518184015260208101905061022b565b50505050905090810190601f1680156102735780820380516001836020036101000a031916815260200191505b509250505060405180910390f35b61033a6004803603602081101561029757600080fd5b81019080803590602001906401000000008111156102b457600080fd5b8201836020820111156102c657600080fd5b803590602001918460018302840111640100000000831117156102e857600080fd5b91908080601f016020809104026020016040519081016040528093929190818152602001838380828437600081840152601f19601f820116905080830192505050505050509192919290505050610a2a565b005b610344610b66565b6040518082815260200191505060405180910390f35b610362610b6c565b6040518080602001828103825283818151815260200191508051906020019080838360005b838110156103a2578082015181840152602081019050610387565b50505050905090810190601f1680156103cf5780820380516001836020036101000a031916815260200191505b509250505060405180910390f35b6104a0600480360360408110156103f357600080fd5b81019080803590602001909291908035906020019064010000000081111561041a57600080fd5b82018360208201111561042c57600080fd5b8035906020019184600183028401116401000000008311171561044e57600080fd5b91908080601f016020809104026020016040519081016040528093929190818152602001838380828437600081840152601f19601f820116905080830192505050505050509192919290505050610e29565b005b6104aa61119f565b6040518080602001828103825283818151815260200191508051906020019080838360005b838110156104ea5780820151818401526020810190506104cf565b50505050905090810190601f1680156105175780820380516001836020036101000a031916815260200191505b509250505060405180910390f35b61052d6112d2565b6040518080602001828103825283818151815260200191508051906020019080838360005b8381101561056d578082015181840152602081019050610552565b50505050905090810190601f16801561059a5780820380516001836020036101000a031916815260200191505b509250505060405180910390f35b6105b0611374565b005b6105ba61137e565b6040518082815260200191505060405180910390f35b6105d8611419565b6040518082815260200191505060405180910390f35b6106a76004803603602081101561060457600080fd5b810190808035906020019064010000000081111561062157600080fd5b82018360208201111561063357600080fd5b8035906020019184600183028401116401000000008311171561065557600080fd5b91908080601f016020809104026020016040519081016040528093929190818152602001838380828437600081840152601f19601f820116905080830192505050505050509192919290505050611423565b6040518082815260200191505060405180910390f35b6106c5611588565b6040518082815260200191505060405180910390f35b6106e36116a0565b6040518080602001828103825283818151815260200191508051906020019080838360005b83811015610723578082015181840152602081019050610708565b50505050905090810190601f1680156107505780820380516001836020036101000a031916815260200191505b509250505060405180910390f35b610766611882565b005b6107706118a8565b6040518080602001828103825283818151815260200191508051906020019080838360005b838110156107b0578082015181840152602081019050610795565b50505050905090810190601f1680156107dd5780820380516001836020036101000a031916815260200191505b509250505060405180910390f35b60008060009050600080905060008090505b60355481101561085f576038818154811061081457fe5b906000526020600020906004020160010154831015610852576038818154811061083a57fe5b90600052602060002090600402016001015492508091505b80806001019150506107fd565b50600181019250505090565b6000600160365401905090565b60606001603554016035819055506040518060400160405280600481526020017f646f6e6500000000000000000000000000000000000000000000000000000000815250905090565b6060600060048111156108d057fe5b603960009054906101000a900460ff1660048111156108eb57fe5b1415610a0957600082106109cc57816035819055506001603960006101000a81548160ff0219169083600481111561091f57fe5b02179055506001600481111561093157fe5b603960009054906101000a900460ff16600481111561094c57fe5b141561098f576040518060400160405280600781526020017f6368616e676564000000000000000000000000000000000000000000000000008152509050610a25565b6040518060400160405280600981526020017f756e6368616e67656400000000000000000000000000000000000000000000008152509050610a25565b6040518060400160405280601f81526020017f4e756d626572206f6620706c61796572732073686f756c64206265203e3d30008152509050610a25565b6040518060600160405280603d81526020016123ad603d913990505b919050565b60016004811115610a3757fe5b603960009054906101000a900460ff166004811115610a5257fe5b1415610b6357610a60612187565b60405180608001604052808381526020016064815260200160006002811115610a8557fe5b815260200160008152509050603881908060018154018082558091505090600182039060005260206000209060040201600090919290919091506000820151816000019080519060200190610adb9291906121ba565b506020820151816001015560408201518160020160006101000a81548160ff02191690836002811115610b0a57fe5b0217905550606082015181600301555050506001603654016036819055506035546036541415610b615760006036819055506002603960006101000a81548160ff02191690836004811115610b5b57fe5b02179055505b505b50565b60355481565b606060036004811115610b7b57fe5b603960009054906101000a900460ff166004811115610b9657fe5b1415610ded57610ba46119d4565b6000610bae611a03565b9050610bb8611a5b565b60379080519060200190610bcd92919061223a565b5060008090505b603554811015610cfd5760388181548110610beb57fe5b906000526020600020906004020160020160009054906101000a900460ff166002811115610c1557fe5b826002811115610c2157fe5b1415610c8c5760388181548110610c3457fe5b90600052602060002090600402016003015460030260388281548110610c5657fe5b9060005260206000209060040201600101540160388281548110610c7657fe5b9060005260206000209060040201600101819055505b600060388281548110610c9b57fe5b906000526020600020906004020160020160006101000a81548160ff02191690836002811115610cc757fe5b0217905550600060388281548110610cdb57fe5b9060005260206000209060040201600301819055508080600101915050610bd4565b506000610d08611f27565b9050600115158115151415610d2457610d1f611f45565b610d49565b6002603960006101000a81548160ff02191690836004811115610d4357fe5b02179055505b60378054600181600116156101000203166002900480601f016020809104026020016040519081016040528092919081815260200182805460018160011615610100020316600290048015610ddf5780601f10610db457610100808354040283529160200191610ddf565b820191906000526020600020905b815481529060010190602001808311610dc257829003601f168201915b505050505092505050610e26565b6040518060400160405280601881526020017f4265747320617265206e6f7420446f6e652079657420283a000000000000000081525090505b90565b60026004811115610e3657fe5b603960009054906101000a900460ff166004811115610e5157fe5b141561119b57603860365481548110610e6657fe5b906000526020600020906004020160010154603860365481548110610e8757fe5b90600052602060002090600402016003018190555081603860365481548110610eac57fe5b9060005260206000209060040201600301541115610eea5781603860365481548110610ed457fe5b9060005260206000209060040201600301819055505b603860365481548110610ef957fe5b906000526020600020906004020160030154603860365481548110610f1a57fe5b90600052602060002090600402016001015403603860365481548110610f3c57fe5b90600052602060002090600402016001018190555060405160200180807f6869676800000000000000000000000000000000000000000000000000000000815250600401905060405160208183030381529060405280519060200120816040516020018082805190602001908083835b60208310610fcf5780518252602082019150602081019050602083039250610fac565b6001836020036101000a03801982511681845116808217855250505050505090500191505060405160208183030381529060405280519060200120141561105357600160386036548154811061102157fe5b906000526020600020906004020160020160006101000a81548160ff0219169083600281111561104d57fe5b02179055505b60405160200180807f6c6f770000000000000000000000000000000000000000000000000000000000815250600301905060405160208183030381529060405280519060200120816040516020018082805190602001908083835b602083106110d157805182526020820191506020810190506020830392506110ae565b6001836020036101000a03801982511681845116808217855250505050505090500191505060405160208183030381529060405280519060200120141561115557600260386036548154811061112357fe5b906000526020600020906004020160020160006101000a81548160ff0219169083600281111561114f57fe5b02179055505b6001603654016036819055506003603960006101000a81548160ff0219169083600481111561118057fe5b0217905550603554603654141561119a5760006036819055505b5b5050565b60606000809050600080905060008090505b60355481101561121357603881815481106111c857fe5b90600052602060002090600402016001015483101561120657603881815481106111ee57fe5b90600052602060002090600402016001015492508091505b80806001019150506111b1565b506038818154811061122157fe5b90600052602060002090600402016000018054600181600116156101000203166002900480601f0160208091040260200160405190810160405280929190818152602001828054600181600116156101000203166002900480156112c65780601f1061129b576101008083540402835291602001916112c6565b820191906000526020600020905b8154815290600101906020018083116112a957829003601f168201915b50505050509250505090565b606060378054600181600116156101000203166002900480601f01602080910402602001604051908101604052809291908181526020018280546001816001161561010002031660029004801561136a5780601f1061133f5761010080835404028352916020019161136a565b820191906000526020600020905b81548152906001019060200180831161134d57829003601f168201915b5050505050905090565b61137c611f45565b565b60008060009050600080905060008090505b6035548110156113f257603881815481106113a757fe5b9060005260206000209060040201600101548310156113e557603881815481106113cd57fe5b90600052602060002090600402016001015492508091505b8080600101915050611390565b506038818154811061140057fe5b9060005260206000209060040201600101549250505090565b6000603554905090565b600080600090505b60388054905081101561157b57826040516020018082805190602001908083835b6020831061146f578051825260208201915060208101905060208303925061144c565b6001836020036101000a03801982511681845116808217855250505050505090500191505060405160208183030381529060405280519060200120603882815481106114b757fe5b906000526020600020906004020160000160405160200180828054600181600116156101000203166002900480156115265780601f10611504576101008083540402835291820191611526565b820191906000526020600020905b815481529060010190602001808311611512575b505091505060405160208183030381529060405280519060200120141561156e576038818154811061155457fe5b906000526020600020906004020160010154915050611583565b808060010191505061142b565b50620f424090505b919050565b600060048081111561159657fe5b603960009054906101000a900460ff1660048111156115b157fe5b14156115c0576004905061169d565b600060048111156115cd57fe5b603960009054906101000a900460ff1660048111156115e857fe5b14156115f7576000905061169d565b6001600481111561160457fe5b603960009054906101000a900460ff16600481111561161f57fe5b141561162e576001905061169d565b6002600481111561163b57fe5b603960009054906101000a900460ff16600481111561165657fe5b1415611665576002905061169d565b6003600481111561167257fe5b603960009054906101000a900460ff16600481111561168d57fe5b141561169c576003905061169d565b5b90565b60606004808111156116ae57fe5b603960009054906101000a900460ff1660048111156116c957fe5b141561170c576040518060400160405280600e81526020017f507265737320546f205374617274000000000000000000000000000000000000815250905061187f565b6000600481111561171957fe5b603960009054906101000a900460ff16600481111561173457fe5b1415611777576040518060400160405280601c81526020017f53657420746865206e756d626572206f6620506c6179657273203a2900000000815250905061187f565b6001600481111561178457fe5b603960009054906101000a900460ff16600481111561179f57fe5b14156117c5576040518060600160405280602a81526020016123ea602a9139905061187f565b600260048111156117d257fe5b603960009054906101000a900460ff1660048111156117ed57fe5b14156118135760405180606001604052806022815260200161241460229139905061187f565b6003600481111561182057fe5b603960009054906101000a900460ff16600481111561183b57fe5b141561187e576040518060400160405280601c81526020017f436c69636b206f6e2063616c63756c61746552657761726473203a2900000000815250905061187f565b5b90565b6000603960006101000a81548160ff021916908360048111156118a157fe5b0217905550565b6060600260048111156118b757fe5b603960009054906101000a900460ff1660048111156118d257fe5b1415611998576038603654815481106118e757fe5b90600052602060002090600402016000018054600181600116156101000203166002900480601f01602080910402602001604051908101604052809291908181526020018280546001816001161561010002031660029004801561198c5780601f106119615761010080835404028352916020019161198c565b820191906000526020600020905b81548152906001019060200180831161196f57829003601f168201915b505050505090506119d1565b6040518060400160405280601d81526020017f43757272656e746c79204265747320617265206e6f742074616b656e2e00000081525090505b90565b60c860345414156119f4576119e7611f9b565b6001603481905550611a01565b6001603454016034819055505b565b600080600d600060345460348110611a1757fe5b015481611a2057fe5b0490506000600d8202600060345460348110611a3857fe5b01540390506006811015611a5157600292505050611a58565b6001925050505b90565b60606000600d600060345460348110611a7057fe5b015481611a7957fe5b0490506000600d8202600060345460348110611a9157fe5b015403905060606000821415611ada576040518060400160405280600681526020017f416365206f66000000000000000000000000000000000000000000000000000081525090505b6001821415611b1c576040518060400160405280600481526020017f32206f660000000000000000000000000000000000000000000000000000000081525090505b6002821415611b5e576040518060400160405280600481526020017f33206f660000000000000000000000000000000000000000000000000000000081525090505b6003821415611ba0576040518060400160405280600481526020017f34206f660000000000000000000000000000000000000000000000000000000081525090505b6004821415611be2576040518060400160405280600481526020017f35206f660000000000000000000000000000000000000000000000000000000081525090505b6005821415611c24576040518060400160405280600481526020017f36206f660000000000000000000000000000000000000000000000000000000081525090505b6006821415611c66576040518060400160405280600481526020017f37206f660000000000000000000000000000000000000000000000000000000081525090505b6007821415611ca8576040518060400160405280600481526020017f38206f660000000000000000000000000000000000000000000000000000000081525090505b6008821415611cea576040518060400160405280600481526020017f39206f660000000000000000000000000000000000000000000000000000000081525090505b6009821415611d2c576040518060400160405280600581526020017f3130206f6600000000000000000000000000000000000000000000000000000081525090505b600a821415611d6e576040518060400160405280600781526020017f4a61636b206f660000000000000000000000000000000000000000000000000081525090505b600b821415611db0576040518060400160405280600881526020017f517565656e206f6600000000000000000000000000000000000000000000000081525090505b600c821415611df2576040518060400160405280600781526020017f4b696e67206f660000000000000000000000000000000000000000000000000081525090505b6000831415611e3d57611e3a816040518060400160405280600681526020017f20436c756273000000000000000000000000000000000000000000000000000081525061203e565b90505b6001831415611e8857611e85816040518060400160405280600781526020017f204865617274730000000000000000000000000000000000000000000000000081525061203e565b90505b6002831415611ed357611ed0816040518060400160405280600981526020017f204469616d6f6e6473000000000000000000000000000000000000000000000081525061203e565b90505b6003831415611f1e57611f1b816040518060400160405280600781526020017f205370616465730000000000000000000000000000000000000000000000000081525061203e565b90505b80935050505090565b6000602a6034541415611f3d5760019050611f42565b600090505b90565b600060358190555060006036819055506004603960006101000a81548160ff02191690836004811115611f7457fe5b02179055506000603881611f8891906122ba565b50611f91611f9b565b60c8603481905550565b60008090505b603481101561203b5760008160340342604051602001808281526020019150506040516020818303038152906040528051906020012060001c81611fe157fe5b06820190506000808260348110611ff457fe5b015490506000836034811061200557fe5b01546000836034811061201457fe5b0181905550806000846034811061202757fe5b018190555050508080600101915050611fa1565b50565b6060808390506060839050606081518351016040519080825280601f01601f1916602001820160405280156120825781602001600182028038833980820191505090505b5090506060819050600080905060008090505b8551811015612103578581815181106120aa57fe5b602001015160f81c60f81b8383806001019450815181106120c757fe5b60200101907effffffffffffffffffffffffffffffffffffffffffffffffffffffffffffff1916908160001a9053508080600101915050612095565b5060008090505b84518110156121785784818151811061211f57fe5b602001015160f81c60f81b83838060010194508151811061213c57fe5b60200101907effffffffffffffffffffffffffffffffffffffffffffffffffffffffffffff1916908160001a905350808060010191505061210a565b50819550505050505092915050565b60405180608001604052806060815260200160008152602001600060028111156121ad57fe5b8152602001600081525090565b828054600181600116156101000203166002900490600052602060002090601f016020900481019282601f106121fb57805160ff1916838001178555612229565b82800160010185558215612229579182015b8281111561222857825182559160200191906001019061220d565b5b50905061223691906122ec565b5090565b828054600181600116156101000203166002900490600052602060002090601f016020900481019282601f1061227b57805160ff19168380011785556122a9565b828001600101855582156122a9579182015b828111156122a857825182559160200191906001019061228d565b5b5090506122b691906122ec565b5090565b8154818355818111156122e7576004028160040283600052602060002091820191016122e69190612311565b5b505050565b61230e91905b8082111561230a5760008160009055506001016122f2565b5090565b90565b61236191905b8082111561235d57600080820160006123309190612364565b60018201600090556002820160006101000a81549060ff0219169055600382016000905550600401612317565b5090565b90565b50805460018160011615610100020316600290046000825580601f1061238a57506123a9565b601f0160209004906000526020600020908101906123a891906122ec565b5b5056fe47616d6520697320676f696e67206f6e2c20746865206e756d626572206f6620706c61796572732063616e6e6f74206265206d6f64696669656420283a41646420746865206e616d6573206f662074686520706c6179657220696e2073657175656e6365203a29506c6163652062657473207768656e20796f7572207475726e20636f6d6573203a29a265627a7a723158204e335b5d6b717d1daac53b6e03a136d0ecc3371d61509af2115aeade332b601d64736f6c634300050c0032",
  "source": "pragma solidity ^0.5.0;\n\ncontract HighLow{\n     /* ----- importing card Library ------ */\n    \n    enum Suit { Clubs, Diamonds, Hearts, Spades }\n    enum Value { Two, Three, Four, Five, Six, Seven, Eight, Nine, Ten, Jack, King, Queen, Ace }\n    enum Bet { None, High, Low }\n    \n\n\n    /// We choose the following order : 1) value, 2) suit as convention for announcing\n    /// When a new card is announced, it should be \"8 of spade\", not \"spade of 8\"\n    \n    uint[52] deck;\n        \n    uint currentCard = 200;\n    \n    struct Player {\n        string player_name;\n        uint value;\n        Bet playerBet;\n        uint betValue;\n    }\n\n    \n    /// Shuffle cards from the deck\n    function shuffleDeck() internal {\n     for (uint256 i = 0; i < deck.length; i++) {\n        uint256 n = i + uint256(keccak256(abi.encodePacked(now))) % (deck.length - i);\n        uint256 temp = deck[n];\n        deck[n] = deck[i];\n        deck[i] = temp;\n     }\n    }\n    \n    function getCardValue() internal view returns(Bet) {\n        uint suit = deck[currentCard]/uint(13);\n        uint val = deck[currentCard] - (suit*uint(13));\n        if(val < 6) return Bet.Low;\n        else return Bet.High;\n    }\n    \n    function nextCard() internal{\n        if(currentCard == 200){\n            shuffleDeck();\n            currentCard = 1;\n        }\n        else{\n         currentCard  = currentCard + 1;\n        }\n    }\n    \n    function checkStatus() internal view returns(bool){\n       if(currentCard == 42){\n           return true;\n       }\n       else{\n           return false;\n       }\n    }\n    \n    function getCardString() internal view returns(string memory){\n        \n        uint  suit = deck[currentCard]/uint(13);\n        uint  val = deck[currentCard] - (suit*uint(13));\n        string memory card;\n        if(val == 0) card = \"Ace of\";\n        if(val == 1) card = \"2 of\";\n        if(val == 2) card = \"3 of\";\n        if(val == 3) card = \"4 of\";\n        if(val == 4) card = \"5 of\";\n        if(val == 5) card = \"6 of\";\n        if(val == 6) card = \"7 of\";\n        if(val == 7) card = \"8 of\";\n        if(val == 8) card = \"9 of\";\n        if(val == 9) card = \"10 of\";\n        if(val == 10) card = \"Jack of\";\n        if(val == 11) card = \"Queen of\";\n        if(val == 12) card = \"King of\";\n        \n        if(suit == 0) card = concat(card,\" Clubs\");\n        if(suit == 1) card = concat(card,\" Hearts\");\n        if(suit == 2) card = concat(card,\" Diamonds\");\n        if(suit == 3) card = concat(card,\" Spades\");\n        \n        return card;\n        \n    }\n    \n    // copied from internet\n    function concat(string memory _a, string memory _b) internal pure returns (string memory){\n        bytes memory bytes_a = bytes(_a);\n        bytes memory bytes_b = bytes(_b);\n        string memory length_ab = new string(bytes_a.length + bytes_b.length);\n        bytes memory bytes_c = bytes(length_ab);\n        uint k = 0;\n        for (uint i = 0; i < bytes_a.length; i++) bytes_c[k++] = bytes_a[i];\n        for (uint i = 0; i < bytes_b.length; i++) bytes_c[k++] = bytes_b[i];\n        return string(bytes_c);\n    }\n    \n    \n    /*  ------- done -------- */\n    \n    \n        uint public numOfPlayers;\n        uint currentPlayer;\n        string cardString;\n        Player[] players;\n        \n        enum State { Initial, AddPlayers, Bets, Done, NewGame }\n        \n        State state;\n        \n        constructor() public{\n            for(uint i=0;i<52;i++)\n              {\n                  deck[i]= i;\n              }\n            shuffleDeck();\n            numOfPlayers = 0;\n            currentPlayer = 0;\n            state = State.NewGame;\n            players.length = 0;\n        }\n\n        function incr() public returns(string memory){\n            numOfPlayers = numOfPlayers + 1;\n            return \"done\";\n        }\n        function showin() public view returns(uint){\n            return numOfPlayers;\n        }\n\n        function startgame() public{\n            state = State.Initial;\n        }\n\n        // to set the number of players in the house\n        function setNumOfPlayers(uint _val) public returns(string memory) {\n            if(state == State.Initial)\n            {    \n                if( _val >= 0 )\n                   {\n                       numOfPlayers  = _val;\n                       state = State.AddPlayers;\n                       if(state==State.AddPlayers)\n                        {\n                            return \"changed\";\n                        }\n                        else{\n                            return \"unchanged\";\n                        }\n                   }\n                else{\n                    return \"Number of players should be >=0\";\n                }\n            }\n            else{\n                return \"Game is going on, the number of players cannot be modified (:\";\n            }\n        }\n        \n        // returns current Player while bets are taking place\n        function showCurrentPlayer() public view returns(string memory) {\n            if(state == State.Bets){\n                return players[currentPlayer].player_name;\n            }\n            else{\n                return \"Currently Bets are not taken.\";\n            }\n        }\n    \n        // if state == Bets, the function records the bets of each player in \n        function setPlayer(string memory _player_name) public {\n            if(state == State.AddPlayers){\n                  Player memory new_player = Player({\n                  player_name: _player_name,\n                  playerBet: Bet.None,\n                  betValue: 0,\n                  value: 100\n                });\n                players.push(new_player);\n                currentPlayer = currentPlayer + 1;\n                if(currentPlayer == numOfPlayers){\n                  currentPlayer = 0;\n                  state = State.Bets;\n                }\n            }\n        }\n\n        function sendPlaynum() public view returns(uint){\n            return currentPlayer + 1;\n        }\n     \n        //@params _betval : the bet placed by the current player\n        //@params _val : High or Low\n        // if state == Bets, the function records the bets of each player in \n        // sequence\n        function setBet(uint _betval, string memory _val) public{\n            if(state == State.Bets){\n                players[currentPlayer].betValue = players[currentPlayer].value;\n                if( players[currentPlayer].betValue > _betval)\n                    {\n                        players[currentPlayer].betValue =  _betval;\n                    }\n                players[currentPlayer].value = players[currentPlayer].value -  players[currentPlayer].betValue;\n                if(keccak256(abi.encodePacked((_val)))==keccak256(abi.encodePacked((\"high\")))  ){\n                        players[currentPlayer].playerBet = Bet.High;\n                    }\n                if(keccak256(abi.encodePacked((_val)))==keccak256(abi.encodePacked((\"low\"))) ){\n                    players[currentPlayer].playerBet = Bet.Low;\n                }\n                currentPlayer = currentPlayer + 1;\n                state = State.Done;\n                if(currentPlayer == numOfPlayers){\n                  currentPlayer = 0;        \n                }\n            }\n        }\n        \n        // function to calculate rewards after everyone has set their bets\n        function calculateRewards() public returns(string memory) {\n            if(state == State.Done){\n                // To be implemented in CardLib to initialize next card \n                nextCard();\n                // returns the current Cards value (if it is Bet.high or Bet.low )\n                Bet cardValue = getCardValue();\n                // returns the cardString e.g \"8 of Spades\"\n                cardString = getCardString();\n                \n                for (uint i = 0; i < numOfPlayers; i++) {\n                    if(cardValue == players[i].playerBet)\n                        players[i].value = players[i].value +  3*players[i].betValue;\n                    // Setting back to None\n                    players[i].playerBet = Bet.None;\n                    players[i].betValue = 0;\n                }\n                \n                // Logic for next bet\n                //   To Be implemented according \n                //            to CardLib Functions\n                bool check = checkStatus();\n                if(check==true){\n                    reintialize();\n                }\n                else{\n                    state = State.Bets;\n                }\n                return cardString;\n            }\n            else\n                return \"Bets are not Done yet (:\";\n        }\n        \n        function showPreviousCard() public view returns(string memory) {\n            return cardString;\n        }\n        \n        function reintialize() internal{\n            numOfPlayers = 0;\n            currentPlayer = 0; \n            state = State.NewGame;\n            players.length = 0;\n            shuffleDeck();\n            currentCard = 200;\n        }\n        \n        function stateOfGame() public view returns(string memory) {\n            if(state == State.NewGame){\n                return \"Press To Start\";\n            }\n            if(state==State.Initial){\n                return \"Set the number of Players :)\";\n            }\n            if(state==State.AddPlayers){\n                return \"Add the names of the player in sequence :)\";\n            }\n            if(state==State.Bets){\n                return \"Place bets when your turn comes :)\";\n            }\n            if(state==State.Done){\n                return \"Click on calculateRewards :)\";\n            }\n        }\n\n        function states() public view returns(uint) {\n            if(state == State.NewGame){\n                return 4;\n            }\n            if(state==State.Initial){\n                return 0;\n            }\n            if(state==State.AddPlayers){\n                return 1;\n            }\n            if(state==State.Bets){\n                return 2;\n            }\n            if(state==State.Done){\n                return 3;\n            }\n        }\n\n        \n        function reslname() public view returns(string memory){\n            uint mi = 0;\n            uint winner = 0;\n            for (uint i = 0; i < numOfPlayers; i++) {\n                    if(mi < players[i].value)\n                        {\n                            mi = players[i].value;\n                            winner = i;\n                        }\n                }\n            return players[winner].player_name;\n        }\n\n        function reslval() public view returns(uint){\n            uint mi = 0;\n            uint winner = 0;\n            for (uint i = 0; i < numOfPlayers; i++) {\n                    if(mi < players[i].value)\n                        {\n                            mi = players[i].value;\n                            winner = i;\n                        }\n                }\n            return players[winner].value;\n        }\n\n        function resind() public view returns(uint){\n            uint mi = 0;\n            uint winner = 0;\n            for (uint i = 0; i < numOfPlayers; i++) {\n                    if(mi < players[i].value)\n                        {\n                            mi = players[i].value;\n                            winner = i;\n                        }\n                }\n            return winner + 1;\n        }\n        \n        function showPlayerValue(string memory _playername) public view returns(uint) {\n            for(uint256 i=0;i<players.length;i++){\n                if(keccak256(abi.encodePacked((players[i].player_name)))==keccak256(abi.encodePacked((_playername)))){\n                    return players[i].value;\n                }\n            }\n            return 1000000;\n        }\n        \n        function exitGame() public{\n            reintialize();\n        }\n        \n}\n",
  "sourcePath": "/Users/illuminati/highlow/contracts/HighLow.sol",
  "compiler": {
    "name": "solc",
    "version": "0.5.12+commit.7709ece9.Emscripten.clang"
  },
  "schemaVersion": "3.0.19",
  "updatedAt": "2019-11-29T14:54:16.099Z",
  "networkType": "ethereum",
  "devdoc": {
    "methods": {}
  },
  "userdoc": {
    "methods": {}
  }
}